:020000040000FA
:02000000007F7F
:02000100007E7F
:02000200007D7F
:02000300007C7F
:02000400007B7F
:02000500007A7F
:0200060000797F
:0200070000787F
:0200080000777F
:0200090000767F
:02000A0000757F
:02000B0000747F
:02000C0000737F
:02000D0000727F
:02000E0000717F
:02000F0000707F
:02001000006F7F
:02001100006E7F
:02001200006D7F
:02001300006C7F
:02001400006B7F
:02001500006A7F
:0200160000697F
:0200170000687F
:0200180000677F
:0200190000667F
:02001A0000657F
:02001B0000647F
:02001C0000637F
:02001D0000627F
:02001E0000617F
:02001F0000607F
:02002000005F7F
:02002100005E7F
:02002200005D7F
:02002300005C7F
:02002400005B7F
:02002500005A7F
:0200260000597F
:0200270000587F
:0200280000577F
:0200290000567F
:02002A0000557F
:02002B0000547F
:02002C0000537F
:02002D0000527F
:02002E0000517F
:02002F0000507F
:02003000004F7F
:02003100004E7F
:02003200004D7F
:02003300004C7F
:02003400004B7F
:02003500004A7F
:0200360000497F
:0200370000487F
:0200380000477F
:0200390000467F
:02003A0000457F
:02003B0000447F
:02003C0000437F
:02003D0000427F
:02003E0000417F
:02003F0000407F
:02004000003F7F
:02004100003E7F
:02004200003D7F
:02004300003C7F
:02004400003B7F
:02004500003A7F
:0200460000397F
:0200470000387F
:0200480000377F
:0200490000367F
:02004A0000357F
:02004B0000347F
:02004C0000337F
:02004D0000327F
:02004E0000317F
:02004F0000307F
:02005000002F7F
:02005100002E7F
:02005200002D7F
:02005300002C7F
:02005400002B7F
:02005500002A7F
:0200560000297F
:0200570000287F
:0200580000277F
:0200590000267F
:02005A0000257F
:02005B0000247F
:02005C0000237F
:02005D0000227F
:02005E0000217F
:02005F0000207F
:02006000001F7F
:02006100001E7F
:02006200001D7F
:02006300001C7F
:02006400001B7F
:02006500001A7F
:0200660000197F
:0200670000187F
:0200680000177F
:0200690000167F
:02006A0000157F
:02006B0000147F
:02006C0000137F
:02006D0000127F
:02006E0000117F
:02006F0000107F
:02007000000F7F
:02007100000E7F
:02007200000D7F
:02007300000C7F
:02007400000B7F
:02007500000A7F
:0200760000097F
:0200770000087F
:0200780000077F
:0200790000067F
:02007A0000057F
:02007B0000047F
:02007C0000037F
:02007D0000027F
:02007E0000017F
:02007F0000007F
:0200800000FF7F
:0200810000FE7F
:0200820000FD7F
:0200830000FC7F
:0200840000FB7F
:0200850000FA7F
:0200860000F97F
:0200870000F87F
:0200880000F77F
:0200890000F67F
:02008A0000F57F
:02008B0000F47F
:02008C0000F37F
:02008D0000F27F
:02008E0000F17F
:02008F0000F07F
:0200900000EF7F
:0200910000EE7F
:0200920000ED7F
:0200930000EC7F
:0200940000EB7F
:0200950000EA7F
:0200960000E97F
:0200970000E87F
:0200980000E77F
:0200990000E67F
:02009A0000E57F
:02009B0000E47F
:02009C0000E37F
:02009D0000E27F
:02009E0000E17F
:02009F0000E07F
:0200A00000DF7F
:0200A10000DE7F
:0200A20000DD7F
:0200A30000DC7F
:0200A40000DB7F
:0200A50000DA7F
:0200A60000D97F
:0200A70000D87F
:0200A80000D77F
:0200A90000D67F
:0200AA0000D57F
:0200AB0000D47F
:0200AC0000D37F
:0200AD0000D27F
:0200AE0000D17F
:0200AF0000D07F
:0200B00000CF7F
:0200B10000CE7F
:0200B20000CD7F
:0200B30000CC7F
:0200B40000CB7F
:0200B50000CA7F
:0200B60000C97F
:0200B70000C87F
:0200B80000C77F
:0200B90000C67F
:0200BA0000C57F
:0200BB0000C47F
:0200BC0000C37F
:0200BD0000C27F
:0200BE0000C17F
:0200BF0000C07F
:0200C00000BF7F
:0200C10000BE7F
:0200C20000BD7F
:0200C30000BC7F
:0200C40000BB7F
:0200C50000BA7F
:0200C60000B97F
:0200C70000B87F
:0200C80000B77F
:0200C90000B67F
:0200CA0000B57F
:0200CB0000B47F
:0200CC0000B37F
:0200CD0000B27F
:0200CE0000B17F
:0200CF0000B07F
:0200D00000AF7F
:0200D10000AE7F
:0200D20000AD7F
:0200D30000AC7F
:0200D40000AB7F
:0200D50000AA7F
:0200D60000A97F
:0200D70000A87F
:0200D80000A77F
:0200D90000A67F
:0200DA0000A57F
:0200DB0000A47F
:0200DC0000A37F
:0200DD0000A27F
:0200DE0000A17F
:0200DF0000A07F
:0200E000009F7F
:0200E100009E7F
:0200E200009D7F
:0200E300009C7F
:0200E400009B7F
:0200E500009A7F
:0200E60000997F
:0200E70000987F
:0200E80000977F
:0200E90000967F
:0200EA0000957F
:0200EB0000947F
:0200EC0000937F
:0200ED0000927F
:0200EE0000917F
:0200EF0000907F
:0200F000008F7F
:0200F100008E7F
:0200F200008D7F
:0200F300008C7F
:0200F400008B7F
:0200F500008A7F
:0200F60000897F
:0200F70000887F
:0200F80000877F
:0200F90000867F
:0200FA0000857F
:0200FB0000847F
:0200FC0000837F
:0200FD0000827F
:0200FE0000817F
:0200FF0000807F
:02010000017F7D
:02010100017E7D
:02010200017D7D
:02010300017C7D
:02010400017B7D
:02010500017A7D
:0201060001797D
:0201070001787D
:0201080001777D
:0201090001767D
:02010A0001757D
:02010B0001747D
:02010C0001737D
:02010D0001727D
:02010E0001717D
:02010F0001707D
:02011000016F7D
:02011100016E7D
:02011200016D7D
:02011300016C7D
:02011400016B7D
:02011500016A7D
:0201160001697D
:0201170001687D
:0201180001677D
:0201190001667D
:02011A0001657D
:02011B0001647D
:02011C0001637D
:02011D0001627D
:02011E0001617D
:02011F0001607D
:02012000015F7D
:02012100015E7D
:02012200015D7D
:02012300015C7D
:02012400015B7D
:02012500015A7D
:0201260001597D
:0201270001587D
:0201280001577D
:0201290001567D
:02012A0001557D
:02012B0001547D
:02012C0001537D
:02012D0001527D
:02012E0001517D
:02012F0001507D
:02013000014F7D
:02013100014E7D
:02013200014D7D
:02013300014C7D
:02013400014B7D
:02013500014A7D
:0201360001497D
:0201370001487D
:0201380001477D
:0201390001467D
:02013A0001457D
:02013B0001447D
:02013C0001437D
:02013D0001427D
:02013E0001417D
:02013F0001407D
:02014000013F7D
:02014100013E7D
:02014200013D7D
:02014300013C7D
:02014400013B7D
:02014500013A7D
:0201460001397D
:0201470001387D
:0201480001377D
:0201490001367D
:02014A0001357D
:02014B0001347D
:02014C0001337D
:02014D0001327D
:02014E0001317D
:02014F0001307D
:02015000012F7D
:02015100012E7D
:02015200012D7D
:02015300012C7D
:02015400012B7D
:02015500012A7D
:0201560001297D
:0201570001287D
:0201580001277D
:0201590001267D
:02015A0001257D
:02015B0001247D
:02015C0001237D
:02015D0001227D
:02015E0001217D
:02015F0001207D
:02016000011F7D
:02016100011E7D
:02016200011D7D
:02016300011C7D
:02016400011B7D
:02016500011A7D
:0201660001197D
:0201670001187D
:0201680001177D
:0201690001167D
:02016A0001157D
:02016B0001147D
:02016C0001137D
:02016D0001127D
:02016E0001117D
:02016F0001107D
:02017000010F7D
:02017100010E7D
:02017200010D7D
:02017300010C7D
:02017400010B7D
:02017500010A7D
:0201760001097D
:0201770001087D
:0201780001077D
:0201790001067D
:02017A0001057D
:02017B0001047D
:02017C0001037D
:02017D0001027D
:02017E0001017D
:02017F0001007D
:0201800001FF7D
:0201810001FE7D
:0201820001FD7D
:0201830001FC7D
:0201840001FB7D
:0201850001FA7D
:0201860001F97D
:0201870001F87D
:0201880001F77D
:0201890001F67D
:02018A0001F57D
:02018B0001F47D
:02018C0001F37D
:02018D0001F27D
:02018E0001F17D
:02018F0001F07D
:0201900001EF7D
:0201910001EE7D
:0201920001ED7D
:0201930001EC7D
:0201940001EB7D
:0201950001EA7D
:0201960001E97D
:0201970001E87D
:0201980001E77D
:0201990001E67D
:02019A0001E57D
:02019B0001E47D
:02019C0001E37D
:02019D0001E27D
:02019E0001E17D
:02019F0001E07D
:0201A00001DF7D
:0201A10001DE7D
:0201A20001DD7D
:0201A30001DC7D
:0201A40001DB7D
:0201A50001DA7D
:0201A60001D97D
:0201A70001D87D
:0201A80001D77D
:0201A90001D67D
:0201AA0001D57D
:0201AB0001D47D
:0201AC0001D37D
:0201AD0001D27D
:0201AE0001D17D
:0201AF0001D07D
:0201B00001CF7D
:0201B10001CE7D
:0201B20001CD7D
:0201B30001CC7D
:0201B40001CB7D
:0201B50001CA7D
:0201B60001C97D
:0201B70001C87D
:0201B80001C77D
:0201B90001C67D
:0201BA0001C57D
:0201BB0001C47D
:0201BC0001C37D
:0201BD0001C27D
:0201BE0001C17D
:0201BF0001C07D
:0201C00001BF7D
:0201C10001BE7D
:0201C20001BD7D
:0201C30001BC7D
:0201C40001BB7D
:0201C50001BA7D
:0201C60001B97D
:0201C70001B87D
:0201C80001B77D
:0201C90001B67D
:0201CA0001B57D
:0201CB0001B47D
:0201CC0001B37D
:0201CD0001B27D
:0201CE0001B17D
:0201CF0001B07D
:0201D00001AF7D
:0201D10001AE7D
:0201D20001AD7D
:0201D30001AC7D
:0201D40001AB7D
:0201D50001AA7D
:0201D60001A97D
:0201D70001A87D
:0201D80001A77D
:0201D90001A67D
:0201DA0001A57D
:0201DB0001A47D
:0201DC0001A37D
:0201DD0001A27D
:0201DE0001A17D
:0201DF0001A07D
:0201E000019F7D
:0201E100019E7D
:0201E200019D7D
:0201E300019C7D
:0201E400019B7D
:0201E500019A7D
:0201E60001997D
:0201E70001987D
:0201E80001977D
:0201E90001967D
:0201EA0001957D
:0201EB0001947D
:0201EC0001937D
:0201ED0001927D
:0201EE0001917D
:0201EF0001907D
:0201F000018F7D
:0201F100018E7D
:0201F200018D7D
:0201F300018C7D
:0201F400018B7D
:0201F500018A7D
:0201F60001897D
:0201F70001887D
:0201F80001877D
:0201F90001867D
:0201FA0001857D
:0201FB0001847D
:0201FC0001837D
:0201FD0001827D
:0201FE0001817D
:0201FF0001807D
:02020000027F7B
:02020100027E7B
:02020200027D7B
:02020300027C7B
:02020400027B7B
:02020500027A7B
:0202060002797B
:0202070002787B
:0202080002777B
:0202090002767B
:02020A0002757B
:02020B0002747B
:02020C0002737B
:02020D0002727B
:02020E0002717B
:02020F0002707B
:02021000026F7B
:02021100026E7B
:02021200026D7B
:02021300026C7B
:02021400026B7B
:02021500026A7B
:0202160002697B
:0202170002687B
:0202180002677B
:0202190002667B
:02021A0002657B
:02021B0002647B
:02021C0002637B
:02021D0002627B
:02021E0002617B
:02021F0002607B
:02022000025F7B
:02022100025E7B
:02022200025D7B
:02022300025C7B
:02022400025B7B
:02022500025A7B
:0202260002597B
:0202270002587B
:0202280002577B
:0202290002567B
:02022A0002557B
:02022B0002547B
:02022C0002537B
:02022D0002527B
:02022E0002517B
:02022F0002507B
:02023000024F7B
:02023100024E7B
:02023200024D7B
:02023300024C7B
:02023400024B7B
:02023500024A7B
:0202360002497B
:0202370002487B
:0202380002477B
:0202390002467B
:02023A0002457B
:02023B0002447B
:02023C0002437B
:02023D0002427B
:02023E0002417B
:02023F0002407B
:02024000023F7B
:02024100023E7B
:02024200023D7B
:02024300023C7B
:02024400023B7B
:02024500023A7B
:0202460002397B
:0202470002387B
:0202480002377B
:0202490002367B
:02024A0002357B
:02024B0002347B
:02024C0002337B
:02024D0002327B
:02024E0002317B
:02024F0002307B
:02025000022F7B
:02025100022E7B
:02025200022D7B
:02025300022C7B
:02025400022B7B
:02025500022A7B
:0202560002297B
:0202570002287B
:0202580002277B
:0202590002267B
:02025A0002257B
:02025B0002247B
:02025C0002237B
:02025D0002227B
:02025E0002217B
:02025F0002207B
:02026000021F7B
:02026100021E7B
:02026200021D7B
:02026300021C7B
:02026400021B7B
:02026500021A7B
:0202660002197B
:0202670002187B
:0202680002177B
:0202690002167B
:02026A0002157B
:02026B0002147B
:02026C0002137B
:02026D0002127B
:02026E0002117B
:02026F0002107B
:02027000020F7B
:02027100020E7B
:02027200020D7B
:02027300020C7B
:02027400020B7B
:02027500020A7B
:0202760002097B
:0202770002087B
:0202780002077B
:0202790002067B
:02027A0002057B
:02027B0002047B
:02027C0002037B
:02027D0002027B
:02027E0002017B
:02027F0002007B
:0202800002FF7B
:0202810002FE7B
:0202820002FD7B
:0202830002FC7B
:0202840002FB7B
:0202850002FA7B
:0202860002F97B
:0202870002F87B
:0202880002F77B
:0202890002F67B
:02028A0002F57B
:02028B0002F47B
:02028C0002F37B
:02028D0002F27B
:02028E0002F17B
:02028F0002F07B
:0202900002EF7B
:0202910002EE7B
:0202920002ED7B
:0202930002EC7B
:0202940002EB7B
:0202950002EA7B
:0202960002E97B
:0202970002E87B
:0202980002E77B
:0202990002E67B
:02029A0002E57B
:02029B0002E47B
:02029C0002E37B
:02029D0002E27B
:02029E0002E17B
:02029F0002E07B
:0202A00002DF7B
:0202A10002DE7B
:0202A20002DD7B
:0202A30002DC7B
:0202A40002DB7B
:0202A50002DA7B
:0202A60002D97B
:0202A70002D87B
:0202A80002D77B
:0202A90002D67B
:0202AA0002D57B
:0202AB0002D47B
:0202AC0002D37B
:0202AD0002D27B
:0202AE0002D17B
:0202AF0002D07B
:0202B00002CF7B
:0202B10002CE7B
:0202B20002CD7B
:0202B30002CC7B
:0202B40002CB7B
:0202B50002CA7B
:0202B60002C97B
:0202B70002C87B
:0202B80002C77B
:0202B90002C67B
:0202BA0002C57B
:0202BB0002C47B
:0202BC0002C37B
:0202BD0002C27B
:0202BE0002C17B
:0202BF0002C07B
:0202C00002BF7B
:0202C10002BE7B
:0202C20002BD7B
:0202C30002BC7B
:0202C40002BB7B
:0202C50002BA7B
:0202C60002B97B
:0202C70002B87B
:0202C80002B77B
:0202C90002B67B
:0202CA0002B57B
:0202CB0002B47B
:0202CC0002B37B
:0202CD0002B27B
:0202CE0002B17B
:0202CF0002B07B
:0202D00002AF7B
:0202D10002AE7B
:0202D20002AD7B
:0202D30002AC7B
:0202D40002AB7B
:0202D50002AA7B
:0202D60002A97B
:0202D70002A87B
:0202D80002A77B
:0202D90002A67B
:0202DA0002A57B
:0202DB0002A47B
:0202DC0002A37B
:0202DD0002A27B
:0202DE0002A17B
:0202DF0002A07B
:0202E000029F7B
:0202E100029E7B
:0202E200029D7B
:0202E300029C7B
:0202E400029B7B
:0202E500029A7B
:0202E60002997B
:0202E70002987B
:0202E80002977B
:0202E90002967B
:0202EA0002957B
:0202EB0002947B
:0202EC0002937B
:0202ED0002927B
:0202EE0002917B
:0202EF0002907B
:0202F000028F7B
:0202F100028E7B
:0202F200028D7B
:0202F300028C7B
:0202F400028B7B
:0202F500028A7B
:0202F60002897B
:0202F70002887B
:0202F80002877B
:0202F90002867B
:0202FA0002857B
:0202FB0002847B
:0202FC0002837B
:0202FD0002827B
:0202FE0002817B
:0202FF0002807B
:02030000037F79
:02030100037E79
:02030200037D79
:02030300037C79
:02030400037B79
:02030500037A79
:02030600037979
:02030700037879
:02030800037779
:02030900037679
:02030A00037579
:02030B00037479
:02030C00037379
:02030D00037279
:02030E00037179
:02030F00037079
:02031000036F79
:02031100036E79
:02031200036D79
:02031300036C79
:02031400036B79
:02031500036A79
:02031600036979
:02031700036879
:02031800036779
:02031900036679
:02031A00036579
:02031B00036479
:02031C00036379
:02031D00036279
:02031E00036179
:02031F00036079
:02032000035F79
:02032100035E79
:02032200035D79
:02032300035C79
:02032400035B79
:02032500035A79
:02032600035979
:02032700035879
:02032800035779
:02032900035679
:02032A00035579
:02032B00035479
:02032C00035379
:02032D00035279
:02032E00035179
:02032F00035079
:02033000034F79
:02033100034E79
:02033200034D79
:02033300034C79
:02033400034B79
:02033500034A79
:02033600034979
:02033700034879
:02033800034779
:02033900034679
:02033A00034579
:02033B00034479
:02033C00034379
:02033D00034279
:02033E00034179
:02033F00034079
:02034000033F79
:02034100033E79
:02034200033D79
:02034300033C79
:02034400033B79
:02034500033A79
:02034600033979
:02034700033879
:02034800033779
:02034900033679
:02034A00033579
:02034B00033479
:02034C00033379
:02034D00033279
:02034E00033179
:02034F00033079
:02035000032F79
:02035100032E79
:02035200032D79
:02035300032C79
:02035400032B79
:02035500032A79
:02035600032979
:02035700032879
:02035800032779
:02035900032679
:02035A00032579
:02035B00032479
:02035C00032379
:02035D00032279
:02035E00032179
:02035F00032079
:02036000031F79
:02036100031E79
:02036200031D79
:02036300031C79
:02036400031B79
:02036500031A79
:02036600031979
:02036700031879
:02036800031779
:02036900031679
:02036A00031579
:02036B00031479
:02036C00031379
:02036D00031279
:02036E00031179
:02036F00031079
:02037000030F79
:02037100030E79
:02037200030D79
:02037300030C79
:02037400030B79
:02037500030A79
:02037600030979
:02037700030879
:02037800030779
:02037900030679
:02037A00030579
:02037B00030479
:02037C00030379
:02037D00030279
:02037E00030179
:02037F00030079
:0203800003FF79
:0203810003FE79
:0203820003FD79
:0203830003FC79
:0203840003FB79
:0203850003FA79
:0203860003F979
:0203870003F879
:0203880003F779
:0203890003F679
:02038A0003F579
:02038B0003F479
:02038C0003F379
:02038D0003F279
:02038E0003F179
:02038F0003F079
:0203900003EF79
:0203910003EE79
:0203920003ED79
:0203930003EC79
:0203940003EB79
:0203950003EA79
:0203960003E979
:0203970003E879
:0203980003E779
:0203990003E679
:02039A0003E579
:02039B0003E479
:02039C0003E379
:02039D0003E279
:02039E0003E179
:02039F0003E079
:0203A00003DF79
:0203A10003DE79
:0203A20003DD79
:0203A30003DC79
:0203A40003DB79
:0203A50003DA79
:0203A60003D979
:0203A70003D879
:0203A80003D779
:0203A90003D679
:0203AA0003D579
:0203AB0003D479
:0203AC0003D379
:0203AD0003D279
:0203AE0003D179
:0203AF0003D079
:0203B00003CF79
:0203B10003CE79
:0203B20003CD79
:0203B30003CC79
:0203B40003CB79
:0203B50003CA79
:0203B60003C979
:0203B70003C879
:0203B80003C779
:0203B90003C679
:0203BA0003C579
:0203BB0003C479
:0203BC0003C379
:0203BD0003C279
:0203BE0003C179
:0203BF0003C079
:0203C00003BF79
:0203C10003BE79
:0203C20003BD79
:0203C30003BC79
:0203C40003BB79
:0203C50003BA79
:0203C60003B979
:0203C70003B879
:0203C80003B779
:0203C90003B679
:0203CA0003B579
:0203CB0003B479
:0203CC0003B379
:0203CD0003B279
:0203CE0003B179
:0203CF0003B079
:0203D00003AF79
:0203D10003AE79
:0203D20003AD79
:0203D30003AC79
:0203D40003AB79
:0203D50003AA79
:0203D60003A979
:0203D70003A879
:0203D80003A779
:0203D90003A679
:0203DA0003A579
:0203DB0003A479
:0203DC0003A379
:0203DD0003A279
:0203DE0003A179
:0203DF0003A079
:0203E000039F79
:0203E100039E79
:0203E200039D79
:0203E300039C79
:0203E400039B79
:0203E500039A79
:0203E600039979
:0203E700039879
:0203E800039779
:0203E900039679
:0203EA00039579
:0203EB00039479
:0203EC00039379
:0203ED00039279
:0203EE00039179
:0203EF00039079
:0203F000038F79
:0203F100038E79
:0203F200038D79
:0203F300038C79
:0203F400038B79
:0203F500038A79
:0203F600038979
:0203F700038879
:0203F800038779
:0203F900038679
:0203FA00038579
:0203FB00038479
:0203FC00038379
:0203FD00038279
:0203FE00038179
:0203FF00038079
:00000001ff
